:100000000C9472000C9493000C9493000C94930045
:100010000C9493000C9493000C9493000C94930014
:100020000C9493000C9493000C9493000C942C0269
:100030000C9493000C9493000C9493000C949300F4
:100040000C9493000C9493000C9493000C949300E4
:100050000C9493000C9493000C9493000C94E20382
:100060000C9493000C9493000C9493000C949300C4
:100070000C9493000C9493000C9493000C941B012B
:100080000C9493000C94E1000C9493000C94930056
:100090000C9493000C9493000C9493000C94930094
:1000A0000C9493000C9493000C9493000C94930084
:1000B0000C9493000C9493000C9493000C94930074
:1000C0000C9493000C9493000C9493000C94930064
:1000D0000C9493000C9493000C9493000C94930054
:1000E0000C94930011241FBECFEFD1E2DEBFCDBF31
:1000F00000E00CBF12E0A0E0B2E0E8E1F2E100E0D5
:100100000BBF02C007900D92A230B107D9F722E0D1
:10011000A2E0B2E001C01D92A632B207E1F70E9450
:1001200058050C940A090C940000CF93DF93CDB7C7
:10013000DEB7F89480E990E0FC01208180E990E04E
:100140002268FC01208381E990E0FC01208181E9A3
:1001500090E02A61FC01208386E990E020E030E80D
:10016000FC013183208388E990E024E130E0FC0148
:10017000318320838AE990E024E931E1FC01318375
:1001800020838DE290E0FC0120818DE290E02860E8
:10019000FC01208381E790E0FC01208181E790E071
:1001A0002462FC01208388E690E0FC01208188E63F
:1001B00090E02460FC01208378940000DF91CF91CF
:1001C00008951F920F920FB60F9211240BB60F9243
:1001D0002F938F939F93EF93FF93CF93DF93CDB79D
:1001E000DEB780910002880F8093000280910002A8
:1001F000883019F481E0809300028DE690E0209130
:100200000002FC01208381E790E0FC01208181E76E
:1002100090E02460FC0120830000DF91CF91FF91EA
:10022000EF919F918F912F910F900BBE0F900FBE6A
:100230000F901F9018951F920F920FB60F921124D6
:100240000BB60F922F933F934F935F936F937F93D0
:100250008F939F93AF93BF93EF93FF93CF93DF93CE
:10026000CDB7DEB7EC97DEBFCDBF80910002813005
:1002700009F043C086E990E0DC018D919C9186569F
:10028000914196958795969587959C0140E050E021
:10029000298F3A8F4B8F5C8F698D7A8D8B8D9C8DDA
:1002A0000E940F0869837A838B839C8322EB3DE94C
:1002B0004FEA5EE369817A818B819C810E94750897
:1002C0006D8F7E8F8F8F98A38D8D9E8DAF8DB8A1F2
:1002D0008D839E83AF83B8876D817E818F81988562
:1002E0000E94E00769A37AA38BA39CA389A19AA18A
:1002F00090930302809302028FC0809100028230AB
:1003000009F043C086E990E0DC018D919C9186560E
:10031000914196958795969587959C0140E050E090
:100320002DA33EA34FA358A76DA17EA18FA198A591
:100330000E940F0869877A878B879C8722EB3DE9AB
:100340004FEA5EE369857A858B859C850E947508F6
:1003500069A77AA78BA79CA789A59AA5ABA5BCA5D9
:100360008D879E87AF87B88B6D857E858F859889B1
:100370000E94E0076DA77EA78FA798AB8DA59EA5CD
:10038000909305028093040247C08091000284305C
:1003900009F042C086E990E0DC018D919C9186567F
:1003A000914196958795969587959C0140E050E000
:1003B00029AB3AAB4BAB5CAB69A97AA98BA99CA9D9
:1003C0000E940F08698B7A8B8B8B9C8B22EB3DE90B
:1003D0004FEA5EE369897A898B899C890E94750856
:1003E0006DAB7EAB8FAB98AF8DA99EA9AFA9B8AD11
:1003F0008D8B9E8BAF8BB88F6D897E898F89988D01
:100400000E94E00769AF7AAF8BAF9CAF89AD9AAD20
:1004100090930702809306028DE690E0DC011C9227
:100420000000EC960FB6F894DEBF0FBECDBFDF9193
:10043000CF91FF91EF91BF91AF919F918F917F915C
:100440006F915F914F913F912F910F900BBE0F9045
:100450000FBE0F901F9018951F920F920FB60F921C
:1004600011240BB60F922F933F934F935F936F938B
:100470007F938F939F93AF93BF93EF93FF93CF930C
:10048000DF93CDB7DEB7EC97DEBFCDBF8091000222
:10049000813009F043C084E990E0DC018D919C91AA
:1004A0008656914196958795969587959C0140E053
:1004B00050E0298F3A8F4B8F5C8F698D7A8D8B8DB1
:1004C0009C8D0E940F0869837A838B839C8322EB27
:1004D0003DE94FEA5EE369817A818B819C810E94CC
:1004E00075086D8F7E8F8F8F98A38D8D9E8DAF8DAC
:1004F000B8A18D839E83AF83B8876D817E818F8104
:1005000098850E94E00769A37AA38BA39CA389A185
:100510009AA190930302809302028FC080910002FF
:10052000823009F043C084E990E0DC018D919C9118
:100530008656914196958795969587959C0140E0C2
:1005400050E02DA33EA34FA358A76DA17EA18FA17C
:1005500098A50E940F0869877A878B879C8722EB72
:100560003DE94FEA5EE369857A858B859C850E942B
:10057000750869A77AA78BA79CA789A59AA5ABA59B
:10058000BCA58D879E87AF87B88B6D857E858F854F
:1005900098890E94E0076DA77EA78FA798AB8DA5CD
:1005A0009EA5909305028093040247C080910002AB
:1005B000843009F042C084E990E0DC018D919C9187
:1005C0008656914196958795969587959C0140E032
:1005D00050E029AB3AAB4BAB5CAB69A97AA98BA9CC
:1005E0009CA90E940F08698B7A8B8B8B9C8B22EBCA
:1005F0003DE94FEA5EE369897A898B899C890E948B
:1006000075086DAB7EAB8FAB98AF8DA99EA9AFA9D6
:10061000B8AD8D8B9E8BAF8BB88F6D897E898F899E
:10062000988D0E94E00769AF7AAF8BAF9CAF89AD20
:100630009AAD909307028093060281E790E0DC0177
:100640002C9181E790E02F7DFC0120838DE690E0E6
:10065000DC011C920000EC960FB6F894DEBF0FBED2
:10066000CDBFDF91CF91FF91EF91BF91AF919F915E
:100670008F917F916F915F914F913F912F910F904B
:100680000BBE0F900FBE0F901F901895CF93DF9366
:10069000CDB7DEB7F89484E490E0FC01108285E4E5
:1006A00090E0FC01108286E490E026E0FC012083CB
:1006B00084E490E0FC01208184E490E02260FC016D
:1006C000208385E490E0FC01208185E490E02360B4
:1006D000FC0120838EE690E0FC0120818EE690E014
:1006E0002160FC01208378940000DF91CF91089570
:1006F0008F929F92AF92BF92CF92DF92EF92FF9232
:100700000F931F93CF93DF930F920F92CDB7DEB766
:100710009A83898389819A818130910599F58090A6
:10072000080290900902A0900A02B0900B02C090BB
:100730000C02D0900D02E0900E02F0900F02282DD6
:10074000392D4A2D5B2D6C2D7D2D8E2D9F2DA1E0F9
:100750000E94CB07822E932EA42EB52EC62ED72E06
:10076000E82EF92E8092080290920902A0920A02C5
:10077000B0920B02C0920C02D0920D02E0920E02D7
:10078000F0920F02009108021091090220910A02D2
:1007900030910B0240910C0250910D0260910E02BB
:1007A00070910F02C8010F900F90DF91CF911F91B0
:1007B0000F91FF90EF90DF90CF90BF90AF909F9000
:1007C0008F9008951F920F920FB60F9211240BB6BF
:1007D0000F922F933F934F935F936F937F938F93DA
:1007E0009F93AF93BF93EF93FF93CF93DF93CDB7D7
:1007F000DEB786E490E026E0FC01208381E090E013
:100800000E9478030000DF91CF91FF91EF91BF919B
:10081000AF919F918F917F916F915F914F913F9198
:100820002F910F900BBE0F900FBE0F901F90189539
:10083000CF93DF93CDB7DEB784E290E0FC01208157
:1008400084E290E02260FC01208385E290E0FC01DC
:10085000208185E290E02D7FFC0120838AE091E0F9
:10086000FC0120818AE091E02F7EFC0120838AE058
:1008700091E0FC0120818AE091E0277FFC01208348
:100880000000DF91CF910895CF93DF93CDB7DEB70E
:1008900080EA90E022EAFC01208381EA90E02AE1EC
:1008A000FC01208388EA90E0FC01118210828AEA30
:1008B00090E0FC011182108286EA90E02CEE34E098
:1008C000FC013183208381E091E0FC01208181E003
:1008D00091E02860FC0120838DE290E0FC01208102
:1008E0008DE290E02061FC0120838DE290E0FC012C
:1008F00020818DE290E02062FC0120838DE290E077
:10090000FC0120818DE290E02260FC01208383E3E2
:1009100090E0FC01208183E390E02062FC012083D1
:1009200081E091E0FC01208181E091E02061FC0107
:1009300020830000DF91CF910895CF93DF930F9232
:100940000F92CDB7DEB79A83898389819A819923E3
:100950002CF189819A818436910509F0FCF486EAAC
:1009600090E0FC0180819181969587959695879579
:100970009C01ABE7B4E10E94BC07BC01769567958A
:1009800049815A8188EA90E0649F9001659F300D0B
:10099000749F300D1124FC013183208300000F90DF
:1009A0000F90DF91CF910895CF93DF930F920F9225
:1009B000CDB7DEB79A83898389819A8199232CF1F7
:1009C00089819A818436910509F0FCF486EA90E0E9
:1009D000FC018081918196958795969587959C01DC
:1009E000ABE7B4E10E94BC07BC01769567954981ED
:1009F0005A818AEA90E0649F9001659F300D749F50
:100A0000300D1124FC013183208300000F900F90E2
:100A1000DF91CF910895CF93DF9300D000D00F9254
:100A20000F92CDB7DEB79A8389837C836B83209145
:100A3000040230910502809102029091030228176E
:100A4000390779F070F080910402909105022091AD
:100A5000020230910302B9010E94A807CB019A83D8
:100A600089832091040230910502809102029091C5
:100A700003022817390770F4809102029091030253
:100A80002091040230910502B9010E94A807CB0110
:100A90009C838B8300006D817E818F819885289651
:100AA0000FB6F894DEBF0FBECDBFDF91CF91089592
:100AB0002F923F924F925F926F927F928F929F926E
:100AC000AF92BF92CF92DF92EF92FF920F931F935C
:100AD000CF93DF93CDB7DEB7A4970FB6F894DEBF00
:100AE0000FBECDBF0E9418040E9495000E944404CE
:100AF0001A8219821C821B828FE290E0FC018081A5
:100B0000882374F08B819C81009761F489819A819C
:100B100001969A83898381E090E09C838B8302C055
:100B20001C821B8289819A818130910509F032C132
:100B30008091060290910702873C910509F008F424
:100B4000F4C085E290E0FC01208185E290E02D7FF9
:100B5000FC01208382E390E00E949D0482E390E008
:100B60000E94D4048EE290E0FC0120818EE290E0AD
:100B70002061FC0120838EE290E0FC0120818EE266
:100B800090E02F7DFC0120838EE290E0FC0120812B
:100B90008EE290E02260FC01208384E390E0FC017F
:100BA000208184E390E02F7DFC0120838FE290E0A0
:100BB000FC018081882F90E088709927009759F078
:100BC0008FE290E0FC018081882F90E0807199276E
:100BD000009709F0DFC080E090E00E9478039E83D8
:100BE0008D83892F880F880B8F83888789878A87D1
:100BF0008B878C87FD81F0931E028E8180931F026C
:100C0000EF81E0932002F885F0932102898580939B
:100C10002202EA85E0932302FB85F09324028C856F
:100C20008093250280E090E00E9478039E878D8764
:100C3000892F880F880B8F87888B898B8A8B8B8B6A
:100C40008C8B20901E0230901F024090200250900A
:100C500021026090220270902302809024029090E2
:100C600025022D853E854F85588969897A898B892A
:100C70009C89A22CB32CC42CD52CE62CF72C082D47
:100C8000192D0E94D707822E932EA42EB52EC62E84
:100C9000D72EE82EF92E282D392D4A2D5B2D6C2DBF
:100CA0007D2D8E2D9F2D283EE3E03E074105510509
:100CB000610571058105910509F008F46BC080E0BC
:100CC00090E00E949D0480E090E00E94D4048EE2B7
:100CD00090E0FC0120818EE290E02061FC01208305
:100CE0008EE290E0FC0120818EE290E02F7DFC01FD
:100CF00020838EE290E0FC0120818EE290E0226071
:100D0000FC01208384E390E0FC01208184E390E0F7
:100D10002F7DFC01208385E290E0FC01208185E2AB
:100D200090E02260FC01208335C085E290E0FC0168
:100D3000208185E290E02260FC01208380E090E049
:100D40000E949D0480E090E00E94D4048EE290E036
:100D5000FC0120818EE290E02061FC0120838EE284
:100D600090E0FC0120818EE290E02F7DFC01208349
:100D70008EE290E0FC0120818EE290E02260FC0196
:100D8000208384E390E0FC01208184E390E02F7DC8
:100D9000FC01208389819A818230910509F09FC0EE
:100DA00080E090E00E9478039E8B8D8B892F880FC6
:100DB000880B8F8B888F898F8A8F8B8F8C8FFD8983
:100DC000F0931E028E8980931F02EF89E093200228
:100DD000F88DF0932102898D80932202EA8DE093B1
:100DE0002302FB8DF09324028C8D8093250280E0FA
:100DF00090E00E9478039E8F8D8F892F880F880B3B
:100E00008F8F88A389A38AA38BA38CA320901E0213
:100E100030901F02409020025090210260902202E8
:100E20007090230280902402909025022D8D3E8D9B
:100E30004F8D58A169A17AA18BA19CA1A22CB32CA2
:100E4000C42CD52CE62CF72C082D192D0E94D70781
:100E5000822E932EA42EB52EC62ED72EE82EF92E36
:100E6000282D392D4A2D5B2D6C2D7D2D8E2D9F2DFE
:100E7000203DE7E03E07410551056105710581050B
:100E8000910569F160F180E090E00E949D0486E4A4
:100E900090E00E94D4048EE290E0FC0120818EE27A
:100EA00090E02061FC0120838EE290E0FC01208133
:100EB0008EE290E02F7DFC0120838EE290E0FC0129
:100EC00020818EE290E02260FC01208384E390E0A8
:100ED000FC01208184E390E02F7DFC012083898147
:100EE0009A818130910509F407CE89819A818230F7
:100EF000910509F401CE80E090E00E949D0480E01D
:100F000090E00E94D4048EE290E0FC0120818EE209
:100F100090E02061FC0120838EE290E0FC012081C2
:100F20008EE290E02F7DFC0120838EE290E0FC01B8
:100F300020818EE290E02260FC01208384E390E037
:100F4000FC01208184E390E02F7DFC012083D4CD3F
:100F5000AA1BBB1B51E107C0AA1FBB1FA617B707DF
:100F600010F0A61BB70B881F991F5A95A9F78095FB
:100F70009095BC01CD010895A29FB001B39FC0011F
:100F8000A39F700D811D1124911DB29F700D811DB5
:100F90001124911D08950024A7FD00942A0F301DEF
:100FA000401D501D601D701D801D901D08952A1943
:100FB0003B094C095D096E097F09800B910B08956F
:100FC0000E94540888F09F5798F0B92F9927B7517D
:100FD000B0F0E1F0660F771F881F991F1AF0BA95DD
:100FE000C9F714C0B13091F00E946E08B1E00895C5
:100FF0000C946E08672F782F8827B85F39F0B93FB7
:10100000CCF3869577956795B395D9F73EF490958F
:101010008095709561957F4F8F4F9F4F0895E8940D
:1010200009C097FB3EF490958095709561957F4F30
:101030008F4F9F4F9923A9F0F92F96E9BB279395DE
:10104000F695879577956795B795F111F8CFFAF4EE
:10105000BB0F11F460FF1BC06F5F7F4F8F4F9F4F1F
:1010600016C0882311F096E911C0772321F09EE87D
:10107000872F762F05C0662371F096E8862F70E0E3
:1010800060E02AF09A95660F771F881FDAF7880FBD
:101090009695879597F9089557FD9058440F551FD9
:1010A00059F05F3F71F04795880F97FB991F61F0EA
:1010B0009F3F79F087950895121613061406551F61
:1010C000F2CF4695F1DF08C0161617061806991FCD
:1010D000F1CF86957105610508940895E894BB27C2
:1010E00066277727CB0197F908950E9488080C940A
:1010F000F9080E94EB0838F00E94F20820F09523CE
:1011000011F00C94E2080C94E80811240C946F0878
:101110000E944C0870F3959FC1F3950F50E0551F46
:10112000629FF001729FBB27F00DB11D639FAA273C
:10113000F00DB11DAA1F649F6627B00DA11D661F8B
:10114000829F2227B00DA11D621F739FB00DA11DAC
:10115000621F839FA00D611D221F749F3327A00D66
:10116000611D231F849F600D211D822F762F6A2F02
:1011700011249F5750409AF0F1F088234AF0EE0F67
:10118000FF1FBB1F661F771F881F91505040A9F794
:101190009E3F510580F00C94E2080C946F085F3F6D
:1011A000E4F3983ED4F3869577956795B795F795D0
:1011B000E7959F5FC1F7FE2B880F911D9695879548
:1011C00097F9089597F99F6780E870E060E00895C7
:1011D0009FEF80EC089500240A941616170618064F
:1011E0000906089500240A9412161306140605062B
:1011F0000895092E0394000C11F4882352F0BB0FBC
:1012000040F4BF2B11F460FF04C06F5F7F4F8F4F1E
:081210009F4F0895F894FFCFF1
:021218000100D3
:00000001FF
