:100000000C9472000C9486000C9486000C9486006C
:100010000C9486000C9486000C9486000C94860048
:100020000C9486000C9486000C9486000C94860038
:100030000C9486000C9486000C9486000C94860028
:100040000C9486000C9486000C9486000C94860018
:100050000C9486000C9486000C9486000C94240169
:100060000C9486000C9486000C9486000C948600F8
:100070000C9486000C9486000C9486000C948600E8
:100080000C94CD010C94FD010C9486000C945A0143
:100090000C9486000C9486000C9486000C948600C8
:1000A0000C9486000C9486000C9434030C94640326
:1000B0000C9486000C94C1020C9486000C9486006B
:1000C0000C9486000C9486000C9486000C94860098
:1000D0000C9486000C9486000C9486000C94860088
:1000E0000C94860011241FBECFEFD1E2DEBFCDBF3E
:1000F00000E00CBF22E0A0E0B2E001C01D92A032FF
:10010000B207E1F70E94A5130C94C5150C940000EA
:10011000CF93DF93CDB7DEB7F89484E490E0FC0191
:10012000108285E490E0FC01108286E490E026E0F5
:10013000FC01208384E490E0FC01208184E490E0D1
:100140002260FC01208385E490E0FC01208185E4AD
:1001500090E02360FC0120838EE690E0FC0120818A
:100160008EE690E02160FC01208378940000DF910E
:10017000CF9108958F929F92AF92BF92CF92DF92CC
:10018000EF92FF920F931F93CF93DF930F920F92F3
:10019000CDB7DEB79A83898389819A8181309105B1
:1001A00099F58090000290900102A0900202B09018
:1001B0000302C0900402D0900502E0900602F09085
:1001C0000702282D392D4A2D5B2D6C2D7D2D8E2D6E
:1001D0009F2DA1E00E94CB13822E932EA42EB52E2C
:1001E000C62ED72EE82EF92E8092000290920102A0
:1001F000A0920202B0920302C0920402D0920502C1
:10020000E0920602F09207020091000210910102B2
:1002100020910202309103024091040250910502A4
:100220006091060270910702C8010F900F90DF9154
:10023000CF911F910F91FF90EF90DF90CF90BF90E3
:10024000AF909F908F9008951F920F920FB60F92CC
:1002500011240BB60F922F933F934F935F936F939D
:100260007F938F939F93AF93BF93EF93FF93CF931E
:10027000DF93CDB7DEB786E490E026E0FC01208373
:1002800081E090E00E94BA000000DF91CF91FF91E1
:10029000EF91BF91AF919F918F917F916F915F91FE
:1002A0004F913F912F910F900BBE0F900FBE0F906B
:1002B0001F9018951F920F920FB60F9211240BB634
:1002C0000F922F938F939F93EF93FF93CF93DF938F
:1002D000CDB7DEB788E990E0FC018081918100977D
:1002E000D1F48AE990E0FC0180819181009799F432
:1002F00085E290E0FC01208185E290E02F7BFC010B
:10030000208385E290E0FC01208185E290E02F7758
:10031000FC01208333C088E990E0FC018081918159
:10032000009799F085E290E0FC01208185E290E061
:100330002F77FC01208385E290E0FC01208185E29B
:1003400090E02064FC01208319C08AE990E0FC0160
:1003500080819181009791F085E290E0FC012081FD
:1003600085E290E02F7BFC01208385E290E0FC0198
:10037000208185E290E02068FC0120830000DF916D
:10038000CF91FF91EF919F918F912F910F900BBE85
:100390000F900FBE0F901F9018951F920F920FB6DF
:1003A0000F9211240BB60F922F938F939F93EF937D
:1003B000FF93CF93DF93CDB7DEB788E990E0FC01E0
:1003C000808191818F3F910549F085E290E0FC01A9
:1003D000208185E290E02F7BFC0120830000DF91EB
:1003E000CF91FF91EF919F918F912F910F900BBE25
:1003F0000F900FBE0F901F9018951F920F920FB67F
:100400000F9211240BB60F922F938F939F93EF931C
:10041000FF93CF93DF93CDB7DEB78AE990E0FC017D
:10042000808191818F3F910549F085E290E0FC0148
:10043000208185E290E02F77FC0120830000DF918E
:10044000CF91FF91EF919F918F912F910F900BBEC4
:100450000F900FBE0F901F901895CF93DF93CDB7DD
:10046000DEB784E290E0FC01208184E290E0206429
:10047000FC01208384E290E0FC01208184E290E092
:100480002068FC01208385E290E0FC01208185E268
:1004900090E02F7BFC01208385E290E0FC0120812D
:1004A00085E290E02F77FC01208380E990E0FC0159
:1004B000108281E990E023E0FC01208388E990E04C
:1004C000FC01118210828AE990E0FC011182108205
:1004D00081E790E027E0FC01208378940000DF9121
:1004E000CF910895CF93DF930F92CDB7DEB7898375
:1004F00089818C390CF440C08981843609F0E4F597
:1005000089818823ECF08AE990E0FC011182108255
:100510008981082E000C990B2FEF289FA001299F9D
:10052000500D112424E630E0CA01B9010E94B7132E
:10053000CB019C0188E990E0FC01318320831CC041
:1005400088E990E0FC01118210828981082E000C5C
:10055000990B2FEF289FA001299F500D11242CE902
:100560003FEFCA01B9010E94B713CB019C018AE990
:1005700090E0FC013183208300000F90DF91CF9148
:1005800008951F920F920FB60F9211240BB60F927F
:100590002F938F939F93EF93FF93CF93DF93CDB7D9
:1005A000DEB788EA90E0FC01808191810097D1F468
:1005B0008AEA90E0FC0180819181009799F482E0C1
:1005C00091E0FC01208182E091E02F7BFC012083FF
:1005D0008EE290E0FC0120818EE290E02F7EFC0113
:1005E000208333C088EA90E0FC01808191810097EC
:1005F00099F08EE290E0FC0120818EE290E02F7E67
:10060000FC01208382E091E0FC01208182E091E006
:100610002064FC01208319C08AEA90E0FC018081FB
:100620009181009791F082E091E0FC01208182E0CD
:1006300091E02F7BFC0120838EE290E0FC01208181
:100640008EE290E02061FC0120830000DF91CF91D9
:10065000FF91EF919F918F912F910F900BBE0F9073
:100660000FBE0F901F9018951F920F920FB60F920A
:1006700011240BB60F922F938F939F93EF93FF93B9
:10068000CF93DF93CDB7DEB788EA90E0FC0180819D
:1006900091818F3F910549F082E091E0FC0120813A
:1006A00082E091E02F7BFC0120830000DF91CF915D
:1006B000FF91EF919F918F912F910F900BBE0F9013
:1006C0000FBE0F901F9018951F920F920FB60F92AA
:1006D00011240BB60F922F938F939F93EF93FF9359
:1006E000CF93DF93CDB7DEB78AEA90E0FC0180813B
:1006F00091818F3F910549F08EE290E0FC012081CD
:100700008EE290E02F7EFC0120830000DF91CF91EC
:10071000FF91EF919F918F912F910F900BBE0F90B2
:100720000FBE0F901F901895CF93DF93CDB7DEB714
:1007300081E091E0FC01208181E091E02064FC01F6
:1007400020838DE290E0FC0120818DE290E0206129
:10075000FC01208382E091E0FC01208182E091E0B5
:100760002F7BFC0120838EE290E0FC0120818EE251
:1007700090E02F7EFC01208380EA90E0FC01108253
:1007800081EA90E023E0FC01208388EA90E0FC010C
:10079000118210828AEA90E0FC011182108282E7C5
:1007A00090E027E0FC01208378940000DF91CF9156
:1007B0000895CF93DF930F92CDB7DEB789838981F8
:1007C0008C390CF440C08981843609F0E4F58981C4
:1007D0008823ECF08AEA90E0FC0111821082898182
:1007E000082E000C990B2FEF289FA001299F500D78
:1007F000112424E630E0CA01B9010E94B713CB01ED
:100800009C0188EA90E0FC01318320831CC088EAC7
:1008100090E0FC01118210828981082E000C990B56
:100820002FEF289FA001299F500D11242CE93FEFA5
:10083000CA01B9010E94B713CB019C018AEA90E07A
:10084000FC013183208300000F90DF91CF91089548
:10085000CF93DF93CDB7DEB784E290E0FC01208137
:1008600084E290E02260FC01208385E290E0FC01BC
:10087000208185E290E02260FC0120830000DF916E
:10088000CF910895CF93DF93CDB7DEB78AE091E0A3
:10089000FC0120818AE091E02860FC0120838AE04D
:1008A00091E0FC0120818AE091E02F7EFC01208311
:1008B00084E290E0FC01208184E290E02064FC016D
:1008C000208384E290E0FC01208184E290E02F7795
:1008D000FC01208384E290E0FC01208184E290E02E
:1008E0002061FC01208384E290E0FC01208184E20D
:1008F00090E02F7DFC0120830000DF91CF910895CF
:100900000F931F93CF93DF93CDB7DEB7CE5CD109A2
:100910000FB6F894DEBF0FBECDBF8BE290E0DC01D6
:100920002C918BE290E02860FC01208380E090E035
:10093000A0E2B1E489839A83AB83BC832BEA3AEAD1
:100940004AEA50E469817A818B819C810E94581522
:10095000E3966CAF7DAF8EAF9FAFE397E3968CAD20
:100960009DADAEADBFADE3978D839E83AF83B8875A
:1009700020E030E040E850E469817A818B819C81FD
:100980000E945815E7966CAF7DAF8EAF9FAFE7978B
:10099000E7968CAD9DADAEADBFADE79789879A87E1
:1009A000AB87BC8720E030E040E85FE36D817E816B
:1009B0008F8198850E94F41388231CF481E08D8731
:1009C00013C120E03FEF4FE757E469857A858B85B7
:1009D0009C850E945315882309F00CF4C2C020E0C6
:1009E00030E04AE754E469817A818B819C810E94DE
:1009F000F913EB966CAF7DAF8EAF9FAFEB97EB9695
:100A00008CAD9DADAEADBFADEB978E879F87A88BAC
:100A1000B98B20E030E04AE755E46E857F85888910
:100A200099890E945815EF966CAF7DAF8EAF9FAF3E
:100A3000EF97EF968CAD9DADAEADBFADEF978A8BC6
:100A40009B8BAC8BBD8B20E030E040E85FE36A8994
:100A50007B898C899D890E94F41388232CF481E082
:100A600090E09F8B8E8B72C020E03FEF4FE757E402
:100A70006A897B898C899D890E945315882309F096
:100A80000CF44EC020E030E040E251E46E857F85FA
:100A9000888999890E945815C158DF4F68837983E6
:100AA0008A839B83CF57D040C158DF4F888199817B
:100AB000AA81BB81CF57D040A7968CAF9DAFAEAF78
:100AC000BFAFA797A7966CAD7DAD8EAD9FADA79735
:100AD0000E947214CD57DF4F688379838A839B838A
:100AE000C358D040CD57DF4FA881B981C358D040FB
:100AF000BF8BAE8B10C080E991E0998F888F888D75
:100B0000998D0197F1F7998F888F00008E899F89C1
:100B100001979F8B8E8B8E899F89009761F764C0A8
:100B20006A897B898C899D890E947214C957DF4F1D
:100B3000688379838A839B83C758D040C957DF4F26
:100B4000E881F981C758D040FF8BEE8B8E899F8951
:100B50009B8F8A8F8A8D9B8D0197F1F79B8F8A8F50
:100B600043C020E030E04FE753E46D817E818F8108
:100B700098850E945315882319F114F169857A85A7
:100B80008B859C850E947214C557DF4F68837983DB
:100B90008A839B83CB58D040C557DF4F888199818A
:100BA000CB58D0409D8F8C8F8C8D9D8D9F8F8E8F3D
:100BB0008E8D9F8D0197F1F79F8F8E8F00001BC048
:100BC0006D817E818F8198850E947214C157DF4F9D
:100BD000688379838A839B83CF58D040C157DF4F86
:100BE0009881CF58D0409D878D8588A388A18A950C
:100BF000F1F788A300008BE290E0DC012C918BE2FE
:100C000090E02F7EFC012083000089E290E0DC016F
:100C10008C91882F90E0807199270097B1F3109202
:100C200008021092090210920A0210920B0295C15A
:100C300080E090E0A0E8BFE389A39AA3ABA3BCA3A4
:100C40002BEA3AEA4AEA50E469A17AA18BA19CA175
:100C50000E945815CD56DF4F688379838A839B8322
:100C6000C359D040CD56DF4F88819981AA81BB817D
:100C7000C359D0408DA39EA3AFA3B8A720E030E016
:100C800040E850E469A17AA18BA19CA10E9458156B
:100C9000C956DF4F688379838A839B83C759D040C5
:100CA000C956DF4F88819981AA81BB81C759D0403D
:100CB00089A79AA7ABA7BCA720E030E040E85FE394
:100CC0006DA17EA18FA198A50E94F41388231CF426
:100CD00081E08DA71BC120E03FEF4FE757E469A5F6
:100CE0007AA58BA59CA50E945315882309F00CF4C6
:100CF000CAC020E030E04AE754E469A17AA18BA1A0
:100D00009CA10E94F913C556DF4F688379838A83BB
:100D10009B83CB59D040C556DF4F88819981AA81EA
:100D2000BB81CB59D0408EA79FA7A8ABB9AB20E021
:100D300030E04AE755E46EA57FA588A999A90E94ED
:100D40005815C156DF4F688379838A839B83CF59B7
:100D5000D040C156DF4F88819981AA81BB81CF598C
:100D6000D0408AAB9BABACABBDAB20E030E040E801
:100D70005FE36AA97BA98CA99DA90E94F41388232B
:100D80002CF481E090E09FAB8EAB72C020E03FEF8F
:100D90004FE757E46AA97BA98CA99DA90E94531526
:100DA000882309F00CF44EC020E030E040E251E42A
:100DB0006EA57FA588A999A90E945815CD55DF4F2A
:100DC000688379838A839B83C35AD040CD55DF4F94
:100DD00088819981AA81BB81C35AD040AB968CAFE0
:100DE0009DAFAEAFBFAFAB97AB966CAD7DAD8EADEB
:100DF0009FADAB970E947214C955DF4F688379830A
:100E00008A839B83C75AD040C955DF4FA881B981D7
:100E1000C75AD040BFABAEAB10C080E991E099AFEC
:100E200088AF88AD99AD0197F1F799AF88AF000011
:100E30008EA99FA901979FAB8EAB8EA99FA9009702
:100E400061F764C06AA97BA98CA99DA90E9472144C
:100E5000C555DF4F688379838A839B83CB5AD04003
:100E6000C555DF4FE881F981CB5AD040FFABEEABDF
:100E70008EA99FA99BAF8AAF8AAD9BAD0197F1F771
:100E80009BAF8AAF43C020E030E04FE753E46DA151
:100E90007EA18FA198A50E945315882319F114F102
:100EA00069A57AA58BA59CA50E947214C155DF4F38
:100EB000688379838A839B83CF5AD040C155DF4FA3
:100EC00088819981CF5AD0409DAF8CAF8CAD9DADBC
:100ED0009FAF8EAF8EAD9FAD0197F1F79FAF8EAFF5
:100EE000000028C06DA17EA18FA198A50E94721458
:100EF000CD54DF4F688379838A839B83C35BD04063
:100F0000CD54DF4F9881C35BD0409DA72DA5CE0166
:100F1000805C9F4FDC012C93CE01805C9F4FFC01D5
:100F20008081282F2A95F1F7CE01805C9F4FDC014C
:100F30002C9300008091080290910902A0910A026E
:100F4000B0910B020196A11DB11D809308029093F0
:100F50000902A0930A02B0930B0289E290E0FC011F
:100F60008081882F90E080719927009709F060CEEA
:100F70008091080290910902A0910A02B0910B029F
:100F800063968CAF9DAFAEAFBFAF639763966CAD0A
:100F90007DAD8EAD9FAD63970E94A31467966CAF35
:100FA0007DAF8EAF9FAF679726E933E44BE05DE3FB
:100FB00067966CAD7DAD8EAD9FAD67970E9458155D
:100FC000C954DF4F688379838A839B83C75BD04092
:100FD000C954DF4F88819981AA81BB81C75BD0400A
:100FE0006B968CAF9DAFAEAFBFAF6B9720E030E09C
:100FF00040E050E46B966CAD7DAD8EAD9FAD6B97D0
:101000000E94F913C554DF4F688379838A839B83D9
:10101000CB5BD040C554DF4F88819981AA81BB81C9
:10102000CB5BD0406F968CAF9DAFAEAFBFAF6F972D
:101030006F966CAD7DAD8EAD9FAD6F970E946B14BA
:10104000A3966CAF7DAF8EAF9FAFA397A3968CADE9
:101050009DADAEADBFADA39780930C0290930D02F2
:10106000A0930E02B0930F029E012F5B3F4F80E0D2
:1010700090E0A0E2B1E4F90180839183A283B3837D
:101080008E010B5B1F4FCE018F5B9F4F20E030E046
:101090004AE755E4DC016D917D918D919C910E9410
:1010A0005815C154DF4F688379838A839B83CF5B54
:1010B000D040C154DF4F88819981AA81BB81CF5B29
:1010C000D040F80180839183A283B383CE018B5BF0
:1010D0009F4F20E030E040E85FE3DC016D917D91BF
:1010E0008D919C910E94F41388234CF4CE01875B70
:1010F0009F4F21E030E0FC0131832083A1C0CE016D
:101100008B5B9F4F20E03FEF4FE757E4DC016D9191
:101110007D918D919C910E945315882309F00CF4C8
:1011200071C0CE018F5B9F4F20E030E040E251E480
:10113000FC0160817181828193810E945815CD5399
:10114000DF4F688379838A839B83C35CD040CD5310
:10115000DF4F88819981AA81BB81C35CD040AF9663
:101160008CAF9DAFAEAFBFAFAF978E01075B1F4F88
:10117000AF966CAD7DAD8EAD9FADAF970E947214F2
:10118000C953DF4F688379838A839B83C75CD040D0
:10119000C953DF4FE881F981C75CD040D80111966F
:1011A000FC93EE9326C0CE01855B9F4F20E931E092
:1011B000DC012D933C93CE01855B9F4FFC01808128
:1011C00091810197F1F79E01255B3F4FD9018D93E6
:1011D0009C930000CE01875B9F4F9E01275B3F4F92
:1011E000F9012081318121503109DC0111963C93B4
:1011F0002E93CE01875B9F4FFC01808191810097E8
:1012000091F63AC08E01075B1F4FCE018B5B9F4F5B
:10121000DC016D917D918D919C910E947214C5535A
:10122000DF4F688379838A839B83CB5CD040C5532F
:10123000DF4F88819981CB5CD040F8019183808316
:10124000CE01835B9F4F9E01275B3F4FD9012D91BC
:101250003C91FC0131832083CE01835B9F4FDC01F5
:101260008D919C9111970197F1F79E01235B3F4F60
:10127000F9019183808300000000C253DF4F0FB655
:10128000F894DEBF0FBECDBFDF91CF911F910F91BC
:1012900008950F931F93CF93DF93CDB7DEB7CE5C46
:1012A000D1090FB6F894DEBF0FBECDBF8BE290E040
:1012B000DC012C918BE290E02064FC01208380E033
:1012C00090E0A0E2B1E489839A83AB83BC832BEAEC
:1012D0003AEA4AEA50E469817A818B819C810E94D2
:1012E0005815E3966CAF7DAF8EAF9FAFE397E39653
:1012F0008CAD9DADAEADBFADE3978D839E83AF83C7
:10130000B88720E030E040E850E469817A818B8141
:101310009C810E945815E7966CAF7DAF8EAF9FAF52
:10132000E797E7968CAD9DADAEADBFADE7978987EA
:101330009A87AB87BC8720E030E040E85FE36D81AF
:101340007E818F8198850E94F41388231CF481E0AC
:101350008D8713C120E03FEF4FE757E469857A8519
:101360008B859C850E945315882309F00CF4C2C01C
:1013700020E030E04AE754E469817A818B819C81E6
:101380000E94F913EB966CAF7DAF8EAF9FAFEB97DA
:10139000EB968CAD9DADAEADBFADEB978E879F87C5
:1013A000A88BB98B20E030E04AE755E46E857F8555
:1013B000888999890E945815EF966CAF7DAF8EAFE2
:1013C0009FAFEF97EF968CAD9DADAEADBFADEF97F4
:1013D0008A8B9B8BAC8BBD8B20E030E040E85FE3D9
:1013E0006A897B898C899D890E94F41388232CF457
:1013F00081E090E09F8B8E8B72C020E03FEF4FE743
:1014000057E46A897B898C899D890E9453158823BA
:1014100009F00CF44EC020E030E040E251E46E856B
:101420007F85888999890E945815C158DF4F688344
:1014300079838A839B83CF57D040C158DF4F8881FF
:101440009981AA81BB81CF57D040A7968CAF9DAF21
:10145000AEAFBFAFA797A7966CAD7DAD8EAD9FAD7C
:10146000A7970E947214CD57DF4F688379838A83D0
:101470009B83C358D040CD57DF4FA881B981C35853
:10148000D040BF8BAE8B10C080E991E0998F888FE0
:10149000888D998D0197F1F7998F888F00008E893B
:1014A0009F8901979F8B8E8B8E899F89009761F70B
:1014B00064C06A897B898C899D890E947214C9578E
:1014C000DF4F688379838A839B83C758D040C9578D
:1014D000DF4FE881F981C758D040FF8BEE8B8E89B2
:1014E0009F899B8F8A8F8A8D9B8D0197F1F79B8FA8
:1014F0008A8F43C020E030E04FE753E46D817E8166
:101500008F8198850E945315882319F114F16985FC
:101510007A858B859C850E947214C557DF4F68833E
:1015200079838A839B83CB58D040C557DF4F88810E
:101530009981CB58D0409D8F8C8F8C8D9D8D9F8FA6
:101540008E8F8E8D9F8D0197F1F79F8F8E8F00006C
:101550001BC06D817E818F8198850E947214C15756
:10156000DF4F688379838A839B83CF58D040C157EC
:10157000DF4F9881CF58D0409D878D8588A388A163
:101580008A95F1F788A300008BE290E0DC012C91B2
:101590008BE290E02F77FC012083000089E290E04D
:1015A000DC018C918823D4F7109208021092090272
:1015B00010920A0210920B0295C180E090E0A0E820
:1015C000BFE389A39AA3ABA3BCA32BEA3AEA4AEAF6
:1015D00050E469A17AA18BA19CA10E945815CD5617
:1015E000DF4F688379838A839B83C359D040CD566C
:1015F000DF4F88819981AA81BB81C359D0408DA3D7
:101600009EA3AFA3B8A720E030E040E850E469A172
:101610007AA18BA19CA10E945815C956DF4F6883FF
:1016200079838A839B83C759D040C956DF4F88810D
:101630009981AA81BB81C759D04089A79AA7ABA736
:10164000BCA720E030E040E85FE36DA17EA18FA160
:1016500098A50E94F41388231CF481E08DA71BC178
:1016600020E03FEF4FE757E469A57AA58BA59CA53D
:101670000E945315882309F00CF4CAC020E030E022
:101680004AE754E469A17AA18BA19CA10E94F913B5
:10169000C556DF4F688379838A839B83CB59D040BB
:1016A000C556DF4F88819981AA81BB81CB59D04033
:1016B0008EA79FA7A8ABB9AB20E030E04AE755E47E
:1016C0006EA57FA588A999A90E945815C156DF4F1C
:1016D000688379838A839B83CF59D040C156DF4F7B
:1016E00088819981AA81BB81CF59D0408AAB9BABBD
:1016F000ACABBDAB20E030E040E85FE36AA97BA97A
:101700008CA99DA90E94F41388232CF481E090E019
:101710009FAB8EAB72C020E03FEF4FE757E46AA962
:101720007BA98CA99DA90E945315882309F00CF46C
:101730004EC020E030E040E251E46EA57FA588A9CC
:1017400099A90E945815CD55DF4F688379838A8304
:101750009B83C35AD040CD55DF4F88819981AA81A0
:10176000BB81C35AD040AB968CAF9DAFAEAFBFAF7D
:10177000AB97AB966CAD7DAD8EAD9FADAB970E9438
:101780007214C955DF4F688379838A839B83C75A54
:10179000D040C955DF4FA881B981C75AD040BFABEF
:1017A000AEAB10C080E991E099AF88AF88AD99AD3C
:1017B0000197F1F799AF88AF00008EA99FA9019713
:1017C0009FAB8EAB8EA99FA9009761F764C06AA9F1
:1017D0007BA98CA99DA90E947214C555DF4F68830F
:1017E00079838A839B83CB5AD040C555DF4FE881EC
:1017F000F981CB5AD040FFABEEAB8EA99FA99BAF2E
:101800008AAF8AAD9BAD0197F1F79BAF8AAF43C01A
:1018100020E030E04FE753E46DA17EA18FA198A5B1
:101820000E945315882319F114F169A57AA58BA597
:101830009CA50E947214C155DF4F688379838A8307
:101840009B83CF5AD040C155DF4F88819981CF5AB1
:10185000D0409DAF8CAF8CAD9DAD9FAF8EAF8EADA8
:101860009FAD0197F1F79FAF8EAF000028C06DA12B
:101870007EA18FA198A50E947214CD54DF4F68837A
:1018800079838A839B83C35BD040CD54DF4F98819B
:10189000C35BD0409DA72DA5CE01805C9F4FDC018E
:1018A0002C93CE01805C9F4FFC018081282F2A95CC
:1018B000F1F7CE01805C9F4FDC012C9300008091FA
:1018C000080290910902A0910A02B0910B020196C0
:1018D000A11DB11D8093080290930902A0930A02F2
:1018E000B0930B0289E290E0FC01808188230CF424
:1018F00064CE8091080290910902A0910A02B091F1
:101900000B0263968CAF9DAFAEAFBFAF639763968C
:101910006CAD7DAD8EAD9FAD63970E94A3146796AD
:101920006CAF7DAF8EAF9FAF679726E933E44BE096
:101930005DE367966CAD7DAD8EAD9FAD67970E9400
:101940005815C954DF4F688379838A839B83C75BAB
:10195000D040C954DF4F88819981AA81BB81C75B80
:10196000D0406B968CAF9DAFAEAFBFAF6B9720E012
:1019700030E040E050E46B966CAD7DAD8EAD9FAD38
:101980006B970E94F913C554DF4F688379838A836C
:101990009B83CB5BD040C554DF4F88819981AA815E
:1019A000BB81CB5BD0406F968CAF9DAFAEAFBFAF6E
:1019B0006F976F966CAD7DAD8EAD9FAD6F970E94AA
:1019C0006B14A3966CAF7DAF8EAF9FAFA397A3961A
:1019D0008CAD9DADAEADBFADA3978093100290933B
:1019E0001102A0931202B09313029E012F5B3F4F8E
:1019F00080E090E0A0E2B1E4F90180839183A283CA
:101A0000B3838E010B5B1F4FCE018F5B9F4F20E096
:101A100030E04AE755E4DC016D917D918D919C9118
:101A20000E945815C154DF4F688379838A839B8352
:101A3000CF5BD040C154DF4F88819981AA81BB819F
:101A4000CF5BD040F80180839183A283B383CE0122
:101A50008B5B9F4F20E030E040E85FE3DC016D915D
:101A60007D918D919C910E94F41388234CF4CE01BA
:101A7000875B9F4F21E030E0FC0131832083A1C0D0
:101A8000CE018B5B9F4F20E03FEF4FE757E4DC0137
:101A90006D917D918D919C910E945315882309F041
:101AA0000CF471C0CE018F5B9F4F20E030E040E22C
:101AB00051E4FC0160817181828193810E945815FB
:101AC000CD53DF4F688379838A839B83C35CD04087
:101AD000CD53DF4F88819981AA81BB81C35CD040FF
:101AE000AF968CAF9DAFAEAFBFAFAF978E01075B28
:101AF0001F4FAF966CAD7DAD8EAD9FADAF970E9481
:101B00007214C953DF4F688379838A839B83C75CD0
:101B1000D040C953DF4FE881F981C75CD040D8017C
:101B20001196FC93EE9326C0CE01855B9F4F20E972
:101B300031E0DC012D933C93CE01855B9F4FFC018E
:101B4000808191810197F1F79E01255B3F4FD9017B
:101B50008D939C930000CE01875B9F4F9E01275B76
:101B60003F4FF9012081318121503109DC0111966B
:101B70003C932E93CE01875B9F4FFC018081918126
:101B8000009791F63AC08E01075B1F4FCE018B5B29
:101B90009F4FDC016D917D918D919C910E947214FB
:101BA000C553DF4F688379838A839B83CB5CD040A6
:101BB000C553DF4F88819981CB5CD040F801918378
:101BC0008083CE01835B9F4F9E01275B3F4FD901EE
:101BD0002D913C91FC0131832083CE01835B9F4F8B
:101BE000DC018D919C9111970197F1F79E01235B88
:101BF0003F4FF9019183808300000000C253DF4F03
:101C00000FB6F894DEBF0FBECDBFDF91CF911F910D
:101C10000F9108950F931F93CF93DF93CDB7DEB746
:101C2000CE5CD1090FB6F894DEBF0FBECDBF8BE2FC
:101C300090E0DC012C918BE290E02061FC0120839C
:101C400080E090E0A0E2B1E489839A83AB83BC8317
:101C50002BEA3AEA4AEA50E469817A818B819C81D5
:101C60000E945815E3966CAF7DAF8EAF9FAFE397A0
:101C7000E3968CAD9DADAEADBFADE3978D839E83F6
:101C8000AF83B88720E030E040E850E469817A8192
:101C90008B819C810E945815E7966CAF7DAF8EAF0B
:101CA0009FAFE797E7968CAD9DADAEADBFADE79723
:101CB00089879A87AB87BC8720E030E040E85FE304
:101CC0006D817E818F8198850E94F41388231CF496
:101CD00081E08D8713C120E03FEF4FE757E469852E
:101CE0007A858B859C850E945315882309F00CF416
:101CF000C2C020E030E04AE754E469817A818B81F8
:101D00009C810E94F913EB966CAF7DAF8EAF9FAFB5
:101D1000EB97EB968CAD9DADAEADBFADEB978E87DF
:101D20009F87A88BB98B20E030E04AE755E46E85A9
:101D30007F85888999890E945815EF966CAF7DAF91
:101D40008EAF9FAFEF97EF968CAD9DADAEADBFADB3
:101D5000EF978A8B9B8BAC8BBD8B20E030E040E80B
:101D60005FE36A897B898C899D890E94F4138823AB
:101D70002CF481E090E09F8B8E8B72C020E03FEFCF
:101D80004FE757E46A897B898C899D890E945315A6
:101D9000882309F00CF44EC020E030E040E251E42A
:101DA0006E857F85888999890E945815C158DF4FB3
:101DB000688379838A839B83CF57D040C158DF4F94
:101DC00088819981AA81BB81CF57D040A7968CAFDB
:101DD0009DAFAEAFBFAFA797A7966CAD7DAD8EADF3
:101DE0009FADA7970E947214CD57DF4F6883798308
:101DF0008A839B83C358D040CD57DF4FA881B981D8
:101E0000C358D040BF8BAE8B10C080E991E0998F52
:101E1000888F888D998D0197F1F7998F888F0000B1
:101E20008E899F8901979F8B8E8B8E899F890097C2
:101E300061F764C06A897B898C899D890E947214CC
:101E4000C957DF4F688379838A839B83C758D04003
:101E5000C957DF4FE881F981C758D040FF8BEE8B1F
:101E60008E899F899B8F8A8F8A8D9B8D0197F1F731
:101E70009B8F8A8F43C020E030E04FE753E46D81B1
:101E80007E818F8198850E945315882319F114F162
:101E900069857A858B859C850E947214C557DF4FB2
:101EA000688379838A839B83CB58D040C557DF4FA3
:101EB00088819981CB58D0409D8F8C8F8C8D9D8D42
:101EC0009F8F8E8F8E8D9F8D0197F1F79F8F8E8FB5
:101ED00000001BC06D817E818F8198850E947214E5
:101EE000C157DF4F688379838A839B83CF58D04063
:101EF000C157DF4F9881CF58D0409D878D8588A3EB
:101F000088A18A95F1F788A300008BE290E0DC01BC
:101F10002C918BE290E02F7DFC012083000089E270
:101F200090E0DC018C91882F90E0807299270097D7
:101F3000B1F3109208021092090210920A02109254
:101F40000B0295C180E090E0A0E8BFE389A39AA3CB
:101F5000ABA3BCA32BEA3AEA4AEA50E469A17AA10E
:101F60008BA19CA10E945815CD56DF4F68837983C1
:101F70008A839B83C359D040CD56DF4F8881998196
:101F8000AA81BB81C359D0408DA39EA3AFA3B8A79C
:101F900020E030E040E850E469A17AA18BA19CA147
:101FA0000E945815C956DF4F688379838A839B83C3
:101FB000C759D040C956DF4F88819981AA81BB811A
:101FC000C759D04089A79AA7ABA7BCA720E030E0AB
:101FD00040E85FE36DA17EA18FA198A50E94F41354
:101FE00088231CF481E08DA71BC120E03FEF4FE761
:101FF00057E469A57AA58BA59CA50E945315882353
:1020000009F00CF4CAC020E030E04AE754E469A1CA
:102010007AA18BA19CA10E94F913C556DF4F68835A
:1020200079838A839B83CB59D040C556DF4F888103
:102030009981AA81BB81CB59D0408EA79FA7A8AB1D
:10204000B9AB20E030E04AE755E46EA57FA588A94A
:1020500099A90E945815C156DF4F688379838A83F6
:102060009B83CF59D040C156DF4F88819981AA8187
:10207000BB81CF59D0408AAB9BABACABBDAB20E0B2
:1020800030E040E85FE36AA97BA98CA99DA90E9482
:10209000F41388232CF481E090E09FAB8EAB72C0E8
:1020A00020E03FEF4FE757E46AA97BA98CA99DA9DF
:1020B0000E945315882309F00CF44EC020E030E054
:1020C00040E251E46EA57FA588A999A90E94581500
:1020D000CD55DF4F688379838A839B83C35AD04071
:1020E000CD55DF4F88819981AA81BB81C35AD040E9
:1020F000AB968CAF9DAFAEAFBFAFAB97AB966CADB1
:102100007DAD8EAD9FADAB970E947214C955DF4F68
:10211000688379838A839B83C75AD040C955DF4F30
:10212000A881B981C75AD040BFABAEAB10C080E91F
:1021300091E099AF88AF88AD99AD0197F1F799AF6C
:1021400088AF00008EA99FA901979FAB8EAB8EA987
:102150009FA9009761F764C06AA97BA98CA99DA972
:102160000E947214C555DF4F688379838A839B83ED
:10217000CB5AD040C555DF4FE881F981CB5AD040CA
:10218000FFABEEAB8EA99FA99BAF8AAF8AAD9BAD8B
:102190000197F1F79BAF8AAF43C020E030E04FE7F3
:1021A00053E46DA17EA18FA198A50E9453158823A9
:1021B00019F114F169A57AA58BA59CA50E9472144A
:1021C000C155DF4F688379838A839B83CF5AD04080
:1021D000C155DF4F88819981CF5AD0409DAF8CAFD8
:1021E0008CAD9DAD9FAF8EAF8EAD9FAD0197F1F7DA
:1021F0009FAF8EAF000028C06DA17EA18FA198A5D2
:102200000E947214CD54DF4F688379838A839B8345
:10221000C35BD040CD54DF4F9881C35BD0409DA7B6
:102220002DA5CE01805C9F4FDC012C93CE01805CFC
:102230009F4FFC018081282F2A95F1F7CE01805C09
:102240009F4FDC012C9300008091080290910902BD
:10225000A0910A02B0910B020196A11DB11D8093BD
:10226000080290930902A0930A02B0930B0289E23C
:1022700090E0FC018081882F90E080729927009780
:1022800009F060CE8091080290910902A0910A02A3
:10229000B0910B0263968CAF9DAFAEAFBFAF6397AB
:1022A00063966CAD7DAD8EAD9FAD63970E94A31418
:1022B00067966CAF7DAF8EAF9FAF679726E933E42B
:1022C0004BE05DE367966CAD7DAD8EAD9FAD6797DE
:1022D0000E945815C954DF4F688379838A839B8392
:1022E000C75BD040C954DF4F88819981AA81BB81E7
:1022F000C75BD0406B968CAF9DAFAEAFBFAF6B9757
:1023000020E030E040E050E46B966CAD7DAD8EADEA
:102310009FAD6B970E94F913C554DF4F6883798393
:102320008A839B83CB5BD040C554DF4F88819981E2
:10233000AA81BB81CB5BD0406F968CAF9DAFAEAF17
:10234000BFAF6F976F966CAD7DAD8EAD9FAD6F9744
:102350000E946B14A3966CAF7DAF8EAF9FAFA39717
:10236000A3968CAD9DADAEADBFADA3978093140287
:1023700090931502A0931602B09317029E012F5B53
:102380003F4F80E090E0A0E2B1E4F90180839183C7
:10239000A283B3838E010B5B1F4FCE018F5B9F4FD8
:1023A00020E030E04AE755E4DC016D917D918D91AC
:1023B0009C910E945815C154DF4F688379838A83AA
:1023C0009B83CF5BD040C154DF4F88819981AA8124
:1023D000BB81CF5BD040F80180839183A283B3831C
:1023E000CE018B5B9F4F20E030E040E85FE3DC01F3
:1023F0006D917D918D919C910E94F41388234CF4F2
:10240000CE01875B9F4F21E030E0FC0131832083C8
:10241000A1C0CE018B5B9F4F20E03FEF4FE757E419
:10242000DC016D917D918D919C910E9453158823C3
:1024300009F00CF471C0CE018F5B9F4F20E030E0BB
:1024400040E251E4FC0160817181828193810E94AC
:102450005815CD53DF4F688379838A839B83C35C90
:10246000D040CD53DF4F88819981AA81BB81C35C65
:10247000D040AF968CAF9DAFAEAFBFAFAF978E01E0
:10248000075B1F4FAF966CAD7DAD8EAD9FADAF9727
:102490000E947214C953DF4F688379838A839B83B8
:1024A000C75CD040C953DF4FE881F981C75CD04099
:1024B000D8011196FC93EE9326C0CE01855B9F4F09
:1024C00020E931E0DC012D933C93CE01855B9F4FE9
:1024D000FC01808191810197F1F79E01255B3F4FBF
:1024E000D9018D939C930000CE01875B9F4F9E0185
:1024F000275B3F4FF9012081318121503109DC01F7
:1025000011963C932E93CE01875B9F4FFC018081F7
:102510009181009791F63AC08E01075B1F4FCE0163
:102520008B5B9F4FDC016D917D918D919C910E9401
:102530007214C553DF4F688379838A839B83CB5C96
:10254000D040C553DF4F88819981CB5CD040F801E2
:1025500091838083CE01835B9F4F9E01275B3F4F1A
:10256000D9012D913C91FC0131832083CE01835B05
:102570009F4FDC018D919C9111970197F1F79E017E
:10258000235B3F4FF9019183808300000000C25319
:10259000DF4F0FB6F894DEBF0FBECDBFDF91CF91F6
:1025A0001F910F910895CF93DF93CDB7DEB7000051
:1025B000DF91CF9108952F923F924F925F926F9249
:1025C0007F928F929F92AF92BF92CF92DF92EF92C3
:1025D000FF920F931F93CF93DF9300D000D00F9201
:1025E0000F92CDB7DEB78FE290E0FC018081882F9B
:1025F00090E080719927009759F08FE290E0FC01FC
:102600008081882F90E088709927009709F07BC01F
:1026100080E090E00E94BA004C01892F880F880B5F
:10262000A82EB82EC82ED82EE82EF82E809218028A
:1026300090921902A0921A02B0921B02C0921C0240
:10264000D0921D02E0921E02F0921F0280E090E004
:102650000E94BA009A838983892F880F880B8B8305
:102660008C838D838E838F8388872090180230908F
:10267000190240901A0250901B0260901C02709048
:102680001D0280901E0290901F0229813A814B8189
:102690005C816D817E818F819885A22CB32CC42CA6
:1026A000D52CE62CF72C082D192D0E94D713822E3D
:1026B000932EA42EB52EC62ED72EE82EF92E282D19
:1026C000392D4A2D5B2D6C2D7D2D8E2D9F2D2C3D72
:1026D000F5E03F074105510561057105810591054B
:1026E00091F088F080E090E00E94D90380E090E0D3
:1026F0000E94720285E290E0FC01208185E290E078
:102700002D7FFC012083000028960FB6F894DEBFD1
:102710000FBECDBFDF91CF911F910F91FF90EF9032
:10272000DF90CF90BF90AF909F908F907F906F90F1
:102730005F904F903F902F900895CF93DF93CDB748
:10274000DEB70000DF91CF910895CF93DF93CDB72F
:10275000DEB70E9449090E940A0E0E9480040E946E
:1027600042040E94DB120E9428040000FECF97FB67
:10277000072E16F4009407D077FD09D00E94E013CD
:1027800007FC05D03EF4909581959F4F0895709574
:1027900061957F4F08950024A7FD00942A0F301DF6
:1027A000401D501D601D701D801D901D08952A192B
:1027B0003B094C095D096E097F09800B910B089557
:1027C000AA1BBB1B51E107C0AA1FBB1FA617B70757
:1027D00010F0A61BB70B881F991F5A95A9F7809573
:1027E0009095BC01CD0108950E94DE1408F481E0AB
:1027F00008950E940D140C9419150E94121558F09A
:102800000E940B1540F029F45F3F29F00C9402154B
:1028100051110C944D150C9408150E942A1568F35B
:102820009923B1F3552391F3951B550BBB27AA2789
:1028300062177307840738F09F5F5F4F220F331FC3
:10284000441FAA1FA9F335D00E2E3AF0E0E832D08B
:1028500091505040E695001CCAF72BD0FE2F29D08E
:10286000660F771F881FBB1F261737074807AB0760
:10287000B0E809F0BB0B802DBF01FF2793585F4FD5
:102880003AF09E3F510578F00C9402150C944D15CA
:102890005F3FE4F3983ED4F3869577956795B795B7
:1028A000F7959F5FC9F7880F911D9695879597F9C2
:1028B0000895E1E0660F771F881FBB1F621773073B
:1028C0008407BA0720F0621B730B840BBA0BEE1F50
:1028D00088F7E09508950E9472146894B1110C94E1
:1028E0004D1508950E94321588F09F5798F0B92F22
:1028F0009927B751B0F0E1F0660F771F881F991F35
:102900001AF0BA95C9F714C0B13091F00E944C1575
:10291000B1E008950C944C15672F782F8827B85F85
:1029200039F0B93FCCF3869577956795B395D9F78C
:102930003EF490958095709561957F4F8F4F9F4F96
:102940000895E89409C097FB3EF4909580957095A2
:1029500061957F4F8F4F9F4F9923A9F0F92F96E9EB
:10296000BB279395F695879577956795B795F11160
:10297000F8CFFAF4BB0F11F460FF1BC06F5F7F4FFD
:102980008F4F9F4F16C0882311F096E911C077230F
:1029900021F09EE8872F762F05C0662371F096E818
:1029A000862F70E060E02AF09A95660F771F881FE7
:1029B000DAF7880F9695879597F90895990F00088B
:1029C000550FAA0BE0E8FEEF16161706E807F90701
:1029D000C0F012161306E407F50798F0621B730B9C
:1029E000840B950B39F40A2661F0232B242B252B1D
:1029F00021F408950A2609F4A140A6958FEF811DC0
:102A0000811D089597F99F6780E870E060E0089560
:102A10009FEF80EC089500240A94161617061806F6
:102A20000906089500240A941216130614060506D2
:102A30000895092E0394000C11F4882352F0BB0F63
:102A400040F4BF2B11F460FF04C06F5F7F4F8F4FC6
:102A50009F4F089557FD9058440F551F59F05F3F01
:102A600071F04795880F97FB991F61F09F3F79F0B0
:102A700087950895121613061406551FF2CF469532
:102A8000F1DF08C0161617061806991FF1CF8695B4
:102A90007105610508940895E894BB276627772798
:102AA000CB0197F908950E94DE1408F48FEF089582
:102AB0000E946B150C9419150E940B1538F00E949A
:102AC000121520F0952311F00C9402150C940815A2
:102AD00011240C944D150E942A1570F3959FC1F393
:102AE000950F50E0551F629FF001729FBB27F00DBC
:102AF000B11D639FAA27F00DB11DAA1F649F662711
:102B0000B00DA11D661F829F2227B00DA11D621F5F
:102B1000739FB00DA11D621F839FA00D611D221F19
:102B2000749F3327A00D611D231F849F600D211DFD
:102B3000822F762F6A2F11249F5750409AF0F1F080
:102B400088234AF0EE0FFF1FBB1F661F771F881FE9
:102B500091505040A9F79E3F510580F00C9402150A
:102B60000C944D155F3FE4F3983ED4F3869577952A
:102B70006795B795F795E7959F5FC1F7FE2B880F8F
:0E2B8000911D9695879597F90895F894FFCFCB
:00000001FF
