:100000000C9482000C94A3000C94A3000C94A30005
:100010000C94A3000C94A3000C94A3000C94A300D4
:100020000C94A3000C94A3000C94A3000C943C0229
:100030000C94A3000C94A3000C94A3000C94A300B4
:100040000C94A3000C94A3000C94A3000C94A300A4
:100050000C94A3000C94A3000C94A3000C94F20342
:100060000C94A3000C94A3000C94A3000C94A30084
:100070000C94A3000C94A3000C94A3000C942B01EB
:100080000C94A3000C94F1000C94A3000C94A30016
:100090000C94A3000C94A3000C94A3000C94A30054
:1000A0000C94A3000C94A3000C94A3000C94A30044
:1000B0000C94A3000C94A3000C94A3000C94A30034
:1000C0000C94A3000C94A3000C94A3000C94A30024
:1000D0000C94A3000C94A3000C94A3000C94A30014
:1000E0000C94A3000C94C7090C94D9090C94D00962
:1000F0000C942E090C947A0A0C943A090C94710A07
:100100000C94680A11241FBECFEFD1E2DEBFCDBF31
:1001100000E00CBF12E0A0E0B2E0EAEFF7E100E09F
:100120000BBF02C007900D92A230B107D9F722E0B1
:10013000A2E0B2E001C01D92AA32B207E1F70E942C
:1001400000090C94F30B0C940000CF93DF93CDB710
:10015000DEB7F89480E990E0FC01208180E990E02E
:100160002268FC01208381E990E0FC01208181E983
:1001700090E02A61FC01208386E990E020E030E8ED
:10018000FC013183208388E990E024E130E0FC0128
:10019000318320838AE990E024E931E1FC01318355
:1001A00020838DE290E0FC0120818DE290E02860C8
:1001B000FC01208381E790E0FC01208181E790E051
:1001C0002462FC01208388E690E0FC01208188E61F
:1001D00090E02460FC01208378940000DF91CF91AF
:1001E00008951F920F920FB60F9211240BB60F9223
:1001F0002F938F939F93EF93FF93CF93DF93CDB77D
:10020000DEB780910002880F809300028091000287
:10021000883019F481E0809300028DE690E020910F
:100220000002FC01208381E790E0FC01208181E74E
:1002300090E02460FC0120830000DF91CF91FF91CA
:10024000EF919F918F912F910F900BBE0F900FBE4A
:100250000F901F9018951F920F920FB60F921124B6
:100260000BB60F922F933F934F935F936F937F93B0
:100270008F939F93AF93BF93EF93FF93CF93DF93AE
:10028000CDB7DEB7EC97DEBFCDBF809100028130E5
:1002900009F043C086E990E0DC018D919C9186567F
:1002A000914196958795969587959C0140E050E001
:1002B000298F3A8F4B8F5C8F698D7A8D8B8D9C8DBA
:1002C0000E94F80A69837A838B839C8328E23EE745
:1002D0004CE05DE369817A818B819C810E945E0B99
:1002E0006D8F7E8F8F8F98A38D8D9E8DAF8DB8A1D2
:1002F0008D839E83AF83B8876D817E818F81988542
:100300000E94C90A69A37AA38BA39CA389A19AA17D
:1003100090930302809302028FC08091000282308A
:1003200009F043C086E990E0DC018D919C918656EE
:10033000914196958795969587959C0140E050E070
:100340002DA33EA34FA358A76DA17EA18FA198A571
:100350000E94F80A69877A878B879C8728E23EE7A4
:100360004CE05DE369857A858B859C850E945E0BF8
:1003700069A77AA78BA79CA789A59AA5ABA5BCA5B9
:100380008D879E87AF87B88B6D857E858F85988991
:100390000E94C90A6DA77EA78FA798AB8DA59EA5C1
:1003A000909305028093040247C08091000284303C
:1003B00009F042C086E990E0DC018D919C9186565F
:1003C000914196958795969587959C0140E050E0E0
:1003D00029AB3AAB4BAB5CAB69A97AA98BA99CA9B9
:1003E0000E94F80A698B7A8B8B8B9C8B28E23EE704
:1003F0004CE05DE369897A898B899C890E945E0B58
:100400006DAB7EAB8FAB98AF8DA99EA9AFA9B8ADF0
:100410008D8B9E8BAF8BB88F6D897E898F89988DE0
:100420000E94C90A69AF7AAF8BAF9CAF89AD9AAD14
:1004300090930702809306028DE690E0DC011C9207
:100440000000EC960FB6F894DEBF0FBECDBFDF9173
:10045000CF91FF91EF91BF91AF919F918F917F913C
:100460006F915F914F913F912F910F900BBE0F9025
:100470000FBE0F901F9018951F920F920FB60F92FC
:1004800011240BB60F922F933F934F935F936F936B
:100490007F938F939F93AF93BF93EF93FF93CF93EC
:1004A000DF93CDB7DEB7EC97DEBFCDBF8091000202
:1004B000813009F043C084E990E0DC018D919C918A
:1004C0008656914196958795969587959C0140E033
:1004D00050E0298F3A8F4B8F5C8F698D7A8D8B8D91
:1004E0009C8D0E94F80A69837A838B839C8328E21F
:1004F0003EE74CE05DE369817A818B819C810E94BB
:100500005E0B6D8F7E8F8F8F98A38D8D9E8DAF8D9F
:10051000B8A18D839E83AF83B8876D817E818F81E3
:1005200098850E94C90A69A37AA38BA39CA389A179
:100530009AA190930302809302028FC080910002DF
:10054000823009F043C084E990E0DC018D919C91F8
:100550008656914196958795969587959C0140E0A2
:1005600050E02DA33EA34FA358A76DA17EA18FA15C
:1005700098A50E94F80A69877A878B879C8728E26A
:100580003EE74CE05DE369857A858B859C850E941A
:100590005E0B69A77AA78BA79CA789A59AA5ABA58F
:1005A000BCA58D879E87AF87B88B6D857E858F852F
:1005B00098890E94C90A6DA77EA78FA798AB8DA5C1
:1005C0009EA5909305028093040247C0809100028B
:1005D000843009F042C084E990E0DC018D919C9167
:1005E0008656914196958795969587959C0140E012
:1005F00050E029AB3AAB4BAB5CAB69A97AA98BA9AC
:100600009CA90E94F80A698B7A8B8B8B9C8B28E2C1
:100610003EE74CE05DE369897A898B899C890E9479
:100620005E0B6DAB7EAB8FAB98AF8DA99EA9AFA9CA
:10063000B8AD8D8B9E8BAF8BB88F6D897E898F897E
:10064000988D0E94C90A69AF7AAF8BAF9CAF89AD14
:100650009AAD909307028093060281E790E0DC0157
:100660002C9181E790E02F7DFC0120838DE690E0C6
:10067000DC011C920000EC960FB6F894DEBF0FBEB2
:10068000CDBFDF91CF91FF91EF91BF91AF919F913E
:100690008F917F916F915F914F913F912F910F902B
:1006A0000BBE0F900FBE0F901F901895CF93DF9346
:1006B000CDB7DEB7F89484E490E0FC01108285E4C5
:1006C00090E0FC01108286E490E026E0FC012083AB
:1006D00084E490E0FC01208184E490E02260FC014D
:1006E000208385E490E0FC01208185E490E0236094
:1006F000FC0120838EE690E0FC0120818EE690E0F4
:100700002160FC01208378940000DF91CF9108954F
:100710008F929F92AF92BF92CF92DF92EF92FF9211
:100720000F931F93CF93DF930F920F92CDB7DEB746
:100730009A83898389819A818130910599F5809086
:10074000080290900902A0900A02B0900B02C0909B
:100750000C02D0900D02E0900E02F0900F02282DB6
:10076000392D4A2D5B2D6C2D7D2D8E2D9F2DA1E0D9
:100770000E94AD0A822E932EA42EB52EC62ED72E01
:10078000E82EF92E8092080290920902A0920A02A5
:10079000B0920B02C0920C02D0920D02E0920E02B7
:1007A000F0920F02009108021091090220910A02B2
:1007B00030910B0240910C0250910D0260910E029B
:1007C00070910F02C8010F900F90DF91CF911F9190
:1007D0000F91FF90EF90DF90CF90BF90AF909F90E0
:1007E0008F9008951F920F920FB60F9211240BB69F
:1007F0000F922F933F934F935F936F937F938F93BA
:100800009F93AF93BF93EF93FF93CF93DF93CDB7B6
:10081000DEB786E490E026E0FC01208381E090E0F2
:100820000E9488030000DF91CF91FF91EF91BF916B
:10083000AF919F918F917F916F915F914F913F9178
:100840002F910F900BBE0F900FBE0F901F90189519
:10085000CF93DF93CDB7DEB784E290E0FC01208137
:1008600084E290E02260FC01208385E290E0FC01BC
:10087000208185E290E02260FC01208380E390E00B
:10088000FC01208180E390E02061FC01208380E373
:1008900090E0FC01208180E390E02860FC0120834F
:1008A0000000DF91CF910895CF93DF93CDB7DEB7EE
:1008B00080EA90E02EEFFC01208381EA90E02AE1BB
:1008C000FC01208388EA90E0FC01118210828AEA10
:1008D00090E0FC011182108286EA90E02CEE34E078
:1008E000FC013183208381E091E0FC01208181E0E3
:1008F00091E02860FC0120838DE290E0FC012081E2
:100900008DE290E02061FC0120838DE290E0FC010B
:1009100020818DE290E02062FC01208383E390E05F
:10092000FC01208183E390E02260FC0120838DE2C2
:1009300090E0FC0120818DE290E02062FC012083A8
:1009400081E091E0FC01208181E091E02061FC01E7
:10095000208382E091E0FC01208182E091E0277F0A
:10096000FC0120838EE290E0FC0120818EE290E089
:100970002F7EFC0120838EE290E0FC0120818EE23C
:1009800090E02F7DFC01208384E390E0FC01208136
:1009900084E390E02D7FFC0120838EE290E0FC0157
:1009A00020818EE290E02F7DFC01208382E091E0A7
:1009B000FC01208182E091E02F7EFC012083000079
:1009C000DF91CF910895CF93DF930F920F92CDB720
:1009D000DEB79A83898389819A8199232CF1898151
:1009E0009A818436910509F0FCF486EA90E0FC01D6
:1009F0008081918196958795969587959C01ABE727
:100A0000B4E10E949E0ABC017695679549815A819E
:100A100088EA90E0649F9001659F300D749F300DCF
:100A20001124FC013183208300000F900F90DF918F
:100A3000CF910895CF93DF930F920F92CDB7DEB78A
:100A40009A83898389819A8199232CF189819A815A
:100A50008436910509F0FCF486EA90E0FC0180817F
:100A6000918196958795969587959C01ABE7B4E122
:100A70000E949E0ABC017695679549815A818AEA4F
:100A800090E0649F9001659F300D749F300D11249C
:100A9000FC013183208300000F900F90DF91CF91F4
:100AA0000895CF93DF9300D000D00F920F92CDB76F
:100AB000DEB79A8389837C836B8320910402309113
:100AC000050280910202909103022817390779F0FC
:100AD00070F0809104029091050220910202309101
:100AE0000302B9010E94820ACB019A838983209173
:100AF00004023091050280910202909103022817AE
:100B0000390770F48091020290910302209104024F
:100B100030910502B9010E94820ACB019C838B832C
:100B200000006D817E818F81988528960FB6F8949C
:100B3000DEBF0FBECDBFDF91CF910895CF93DF937E
:100B4000CDB7DEB760970FB6F894DEBF0FBECDBF4E
:100B500080910402909105028336910509F008F412
:100B600061C080910202909103028336910509F0E1
:100B700008F458C080E090E00E941A0580911E029F
:100B800090911F02A0912002B091210289839A8343
:100B9000AB83BC8320E030E040EF51E469817A818F
:100BA0008B819C810E945E0B69877A878B879C87EB
:100BB00089859A85AB85BC858D839E83AF83B887F5
:100BC0006D817E818F8198850E94C20A6D877E87A4
:100BD0008F87988B8D859E850E94E3048EE290E03E
:100BE000DC012C918EE290E02061FC0120838EE2FA
:100BF00090E0DC012C918EE290E02F7DFC012083BF
:100C00008EE290E0DC012C918EE290E02D7FFC01E1
:100C1000208384E390E0DC012C9184E390E0206267
:100C2000FC012083000060960FB6F894DEBF0FBE73
:100C3000CDBFDF91CF9108952F923F924F925F9257
:100C40006F927F928F929F92AF92BF92CF92DF92DC
:100C5000EF92FF920F931F93CF93DF9300D000D0BA
:100C60000F920F92CDB7DEB78FE290E0FC0180814A
:100C7000882F90E088709927009759F08FE290E0D4
:100C8000FC018081882F90E080719927009709F0FE
:100C90009FC080E090E00E9488034C01892F880F5C
:100CA000880BA82EB82EC82ED82EE82EF82E8092AB
:100CB000220290922302A0922402B0922502C092B6
:100CC0002602D0922702E0922802F092290280E0C8
:100CD00090E00E9488039A838983892F880F880B6C
:100CE0008B838C838D838E838F83888720902202D1
:100CF00030902302409024025090250260902602FA
:100D000070902702809028029090290229813A81D0
:100D10004B815C816D817E818F819885A22CB32C63
:100D2000C42CD52CE62CF72C082D192D0E94B90ABD
:100D3000822E932EA42EB52EC62ED72EE82EF92E57
:100D4000282D392D4A2D5B2D6C2D7D2D8E2D9F2D1F
:100D50002C3DF5E03F074105510561057105810511
:100D60009105B1F1A8F180E090E00E941A0580E0C1
:100D700090E00E94E3048EE290E0FC0120818EE28C
:100D800090E02061FC0120838EE290E0FC01208154
:100D90008EE290E02F7DFC0120838EE290E0FC014A
:100DA00020818EE290E02D7FFC01208384E390E09F
:100DB000FC01208184E390E02062FC01208385E235
:100DC00090E0FC01208185E290E02D7FFC012083F2
:100DD000000028960FB6F894DEBF0FBECDBFDF919E
:100DE000CF911F910F91FF90EF90DF90CF90BF9028
:100DF000AF909F908F907F906F905F904F903F90BB
:100E00002F900895CF93DF93CDB7DEB7C054D109AB
:100E10000FB6F894DEBF0FBECDBF80910602909151
:100E200007028233910509F068F580E090E00E94A6
:100E30001A0580E090E00E94E3048EE290E0DC017D
:100E40002C918EE290E02061FC0120838EE290E004
:100E5000DC012C918EE290E02F7DFC0120838EE25C
:100E600090E0DC012C918EE290E02D7FFC0120834C
:100E700084E390E0DC012C9184E390E02062FC01AB
:100E800020831DC180910602909107028133910554
:100E900009F008F48EC08091060290910702843612
:100EA000910511F008F085C080911A0290911B0203
:100EB000A0911C02B0911D0289839A83AB83BC83ED
:100EC00020E030E040EF51E469817A818B819C81A0
:100ED0000E945E0B69A37AA38BA39CA389A19AA10C
:100EE000ABA1BCA18D839E83AF83B8876D817E81CA
:100EF0008F8198850E94C20A6DA37EA38FA398A7B5
:100F00008DA19EA10E941A0580911E0290911F0240
:100F1000A0912002B091210289879A87AB87BC8774
:100F200020E030E040EF51E469857A858B859C852F
:100F30000E945E0B69A77AA78BA79CA789A59AA593
:100F4000ABA5BCA58D879E87AF87B88B6D857E8549
:100F50008F8598890E94C20A6DA77EA78FA798AB3C
:100F60008DA59EA50E94E3048EE290E0DC012C9109
:100F70008EE290E02061FC0120838EE290E0DC01B3
:100F80002C918EE290E02F7DFC01208384E390E0A1
:100F9000DC012C9184E390E02D7FFC0120838EE224
:100FA00090E0DC012C918EE290E02062FC01208335
:100FB00086C080911A0290911B02A0911C02B091F0
:100FC0001D02898B9A8BAB8BBC8B20E030E040E715
:100FD00052E469897A898B899C890E945E0B69AB8E
:100FE0007AAB8BAB9CAB89A99AA9ABA9BCA98D8B19
:100FF0009E8BAF8BB88F6D897E898F89988D0E946B
:10100000C20A6DAB7EAB8FAB98AF8DA99EA90E9433
:101010001A0580911E0290911F02A0912002B091AA
:101020002102898F9A8FAB8FBC8F20E030E040E7A0
:1010300052E4698D7A8D8B8D9C8D0E945E0B69AF19
:101040007AAF8BAF9CAF89AD9AADABADBCAD8D8F98
:101050009E8FAF8FB8A36D8D7E8D8F8D98A10E94CE
:10106000C20A21966CAF7DAF8EAF9FAF21978DAD39
:101070009EAD0E94E3048EE290E0DC012C918EE2B2
:1010800090E02061FC0120838EE290E0DC012C9155
:101090008EE290E02F7DFC01208384E390E0DC0170
:1010A0002C9184E390E02D7FFC0120838EE290E080
:1010B000DC012C918EE290E02062FC012083000094
:1010C000C05CDF4F0FB6F894DEBF0FBECDBFDF911F
:1010D000CF910895CF93DF93CDB7DEB760970FB66A
:1010E000F894DEBF0FBECDBF809102029091030243
:1010F0008730910509F0B0F48091160290911702A3
:101100000097A1F48091140290911502019690939A
:1011100015028093140281E090E09093170280936F
:10112000160204C010921702109216028091140247
:10113000909115028330910509F058C080E090E04D
:101140000E941A0580911E0290911F02A091200218
:10115000B091210289839A83AB83BC8320E030E085
:1011600040EF51E469817A818B819C810E945E0B02
:1011700069877A878B879C8789859A85AB85BC85AB
:101180008D839E83AF83B8876D817E818F819885A3
:101190000E94C20A6D877E878F87988B8D859E857A
:1011A0000E94E3048EE290E0DC012C918EE290E05C
:1011B0002061FC0120838EE290E0DC012C918EE224
:1011C00090E02F7DFC0120838EE290E0DC012C91E9
:1011D0008EE290E02D7FFC01208384E390E0DC012F
:1011E0002C9184E390E02062FC0120830000609653
:1011F0000FB6F894DEBF0FBECDBFDF91CF9108953B
:10120000CF93DF93CDB7DEB7C054D1090FB6F894B2
:10121000DEBF0FBECDBF0E941C060E9428040E94A4
:101220009E050E946A080E94A5000E9451050E9426
:1012300054048091180290911902092E000CAA0BF7
:10124000BB0B87309105A105B10509F090F7FC01B2
:101250008827EB50F44F8F4F0C94960A8FE290E062
:10126000DC018C91882331F081E090E090931902A9
:101270008093180280911A0290911B02A0911C0287
:10128000B0911D0289839A83AB83BC8320E030E058
:1012900040E752E469817A818B819C810E945E0BD8
:1012A00069A37AA38BA39CA389A19AA1ABA1BCA19A
:1012B0008D839E83AF83B8876D817E818F81988572
:1012C0000E94C20A6DA37EA38FA398A78DA19EA1A1
:1012D0000E941A0580911E0290911F02A091200287
:1012E000B091210289879A87AB87BC8720E030E0E4
:1012F00040E752E469857A858B859C850E945E0B68
:1013000069A77AA78BA79CA789A59AA5ABA5BCA519
:101310008D879E87AF87B88B6D857E858F859889F1
:101320000E94C20A6DA77EA78FA798AB8DA59EA528
:101330000E94E3048EE290E0DC012C918EE290E0CA
:101340002061FC0120838EE290E0DC012C918EE292
:1013500090E02F7DFC01208384E390E0DC012C9160
:1013600084E390E02D7FFC0120838EE290E0DC019D
:101370002C918EE290E02062FC0120830E941C06EA
:1013800082E090E09093190280931802BAC00E9404
:101390009E0583E090E09093190280931802B1C0FB
:1013A0000E946A0884E090E09093190280931802EA
:1013B000A8C080911A0290911B02A0911C02B091CA
:1013C0001D02898B9A8BAB8BBC8B20E030E040E711
:1013D00052E469897A898B899C890E945E0B69AB8A
:1013E0007AAB8BAB9CAB89A99AA9ABA9BCA98D8B15
:1013F0009E8BAF8BB88F6D897E898F89988D0E9467
:10140000C20A6DAB7EAB8FAB98AF8DA99EA90E942F
:101410001A0580911E0290911F02A0912002B091A6
:101420002102898F9A8FAB8FBC8F20E030E040E79C
:1014300052E4698D7A8D8B8D9C8D0E945E0B69AF15
:101440007AAF8BAF9CAF89AD9AADABADBCAD8D8F94
:101450009E8FAF8FB8A36D8D7E8D8F8D98A10E94CA
:10146000C20A21966CAF7DAF8EAF9FAF21978DAD35
:101470009EAD0E94E3048EE290E0DC012C918EE2AE
:1014800090E02061FC0120838EE290E0DC012C9151
:101490008EE290E02F7DFC01208384E390E0DC016C
:1014A0002C9184E390E02D7FFC0120838EE290E07C
:1014B000DC012C918EE290E02062FC0120830E94EE
:1014C0001C0685E090E0909319028093180219C0E1
:1014D0000E941C0686E090E0909319028093180207
:1014E00010C00E949E0587E090E0909319028093BF
:1014F000180207C00E946A0810921902109218027E
:10150000000097CEAA1BBB1B51E107C0AA1FBB1F3F
:10151000A617B70710F0A61BB70B881F991F5A957F
:10152000A9F780959095BC01CD010895EE0FFF1F9E
:10153000881F8BBF0790F691E02D1994A29FB001F0
:10154000B39FC001A39F700D811D1124911DB29FF7
:10155000700D811D1124911D08950024A7FD009494
:101560002A0F301D401D501D601D701D801D901DD7
:1015700008952A193B094C095D096E097F09800B02
:10158000910B08950E94C90A6894B1110C94580BEC
:1015900008950E943D0B88F09F5798F0B92F992726
:1015A000B751B0F0E1F0660F771F881F991F1AF04E
:1015B000BA95C9F714C0B13091F00E94570BB1E051
:1015C00008950C94570B672F782F8827B85F39F050
:1015D000B93FCCF3869577956795B395D9F73EF4E7
:1015E00090958095709561957F4F8F4F9F4F08958F
:1015F000E89409C097FB3EF49095809570956195AD
:101600007F4F8F4F9F4F9923A9F0F92F96E9BB2762
:101610009395F695879577956795B795F111F8CFDE
:10162000FAF4BB0F11F460FF1BC06F5F7F4F8F4F49
:101630009F4F16C0882311F096E911C0772321F03F
:101640009EE8872F762F05C0662371F096E8862FD7
:1016500070E060E02AF09A95660F771F881FDAF72E
:10166000880F9695879597F9089557FD9058440FE0
:10167000551F59F05F3F71F04795880F97FB991FF1
:1016800061F09F3F79F087950895121613061406AE
:10169000551FF2CF4695F1DF08C01616170618063B
:1016A000991FF1CF86957105610508940895E89416
:1016B000BB2766277727CB0197F908950E94710B06
:1016C0000C94E20B0E94D40B38F00E94DB0B20F04C
:1016D000952311F00C94CB0B0C94D10B11240C948A
:1016E000580B0E94350B70F3959FC1F3950F50E096
:1016F000551F629FF001729FBB27F00DB11D639FC4
:10170000AA27F00DB11DAA1F649F6627B00DA11D69
:10171000661F829F2227B00DA11D621F739FB00D0F
:10172000A11D621F839FA00D611D221F749F33277F
:10173000A00D611D231F849F600D211D822F762F18
:101740006A2F11249F5750409AF0F1F088234AF0F5
:10175000EE0FFF1FBB1F661F771F881F9150504061
:10176000A9F79E3F510580F00C94CB0B0C94580BBD
:101770005F3FE4F3983ED4F3869577956795B795E8
:10178000F795E7959F5FC1F7FE2B880F911D969502
:10179000879597F9089597F99F6780E870E060E072
:1017A00008959FEF80EC089500240A9416161706FA
:1017B00018060906089500240A9412161306140642
:1017C00005060895092E0394000C11F4882352F0A5
:1017D000BB0F40F4BF2B11F460FF04C06F5F7F4F5D
:1017E0008F4F9F4F0895F894FFCF2E093A09C709EC
:0A17F000D009D909680A710A7A0AC3
:0217FA000100EC
:00000001FF
