:100000000C9472000C947E000C947E000C947E0084
:100010000C947E000C947E000C947E000C947E0068
:100020000C947E000C947E000C947E000C947E0058
:100030000C947E000C947E000C947E000C947E0048
:100040000C947E000C947E000C947E000C947E0038
:100050000C947E000C947E000C947E000C947E0028
:100060000C947E000C947E000C947E000C947E0018
:100070000C947E000C947E000C947E000C947E0008
:100080000C947E000C947E000C947E000C947E00F8
:100090000C947E000C947E000C947E000C947E00E8
:1000A0000C947E000C947E000C947E000C947E00D8
:1000B0000C947E000C947E000C947E000C947E00C8
:1000C0000C947E000C947E000C947E000C947E00B8
:1000D0000C947E000C947E000C947E000C947E00A8
:1000E0000C947E0011241FBECFEFD1E2DEBFCDBF46
:1000F00000E00CBF0E9411010C94C9010C94000097
:10010000CF93DF93CDB7DEB780EA90E02EEFFC010E
:10011000208381EA90E02AE1FC01208388EA90E0D4
:10012000FC01118210828AEA90E0FC0111821082A7
:1001300086EA90E020ED37E0FC0131832083000067
:10014000DF91CF910895CF93DF930F920F92CDB7A8
:10015000DEB79A83898389819A8199232CF18981D9
:100160009A818436910509F0FCF486EA90E0FC015E
:100170008081918196958795969587959C01ABE7AF
:10018000B4E10E94BA01BC017695679549815A8114
:1001900088EA90E0649F9001659F300D749F300D58
:1001A0001124FC013183208300000F900F90DF9118
:1001B000CF910895CF93DF930F920F92CDB7DEB713
:1001C0009A83898389819A8199232CF189819A81E3
:1001D0008436910509F0FCF486EA90E0FC01808108
:1001E000918196958795969587959C01ABE7B4E1AB
:1001F0000E94BA01BC017695679549815A818AEAC5
:1002000090E0649F9001659F300D749F300D112424
:10021000FC013183208300000F900F90DF91CF917C
:100220000895CF93DF93CDB7DEB70E94800080E3BF
:1002300090E0FC01208180E390E02F77FC01208397
:1002400081E091E0FC01208181E091E02860FC01E7
:1002500020838DE290E0FC0120818DE290E020611E
:10026000FC0120838DE290E0FC0120818DE290E092
:100270002062FC0120838DE290E0FC0120818DE270
:1002800090E02260FC01208383E390E0FC01208168
:1002900083E390E02062FC01208381E091E0FC0197
:1002A000208181E091E02061FC01208382E091E0E7
:1002B000FC01208182E091E0277FFC0120838EE217
:1002C00090E0FC0120818EE290E02F7EFC012083F3
:1002D0008EE290E0FC0120818EE290E02F7DFC0117
:1002E00020838EE290E0FC0120818EE290E02D7F61
:1002F000FC01208384E390E0FC01208184E390E012
:100300002F7DFC01208382E091E0FC01208182E0CE
:1003100091E02F7EFC01208380E090E00E94A3000A
:1003200084E690E00E94DA008EE290E0FC012081F9
:100330008EE290E02061FC0120838EE290E0FC01DF
:1003400020818EE290E02F7DFC0120838EE290E000
:10035000FC0120818EE290E02D7FFC01208384E36C
:1003600090E0FC01208184E390E02062FC01208386
:100370000000D2CFA29FB001B39FC001A39F700D18
:10038000811D1124911DB29F700D811D1124911D9D
:060390000895F894FFCF70
:00000001FF
