:100000000C9472000C947E000C947E000C947E0084
:100010000C947E000C947E000C947E000C947E0068
:100020000C947E000C947E000C947E000C947E0058
:100030000C947E000C947E000C947E000C947E0048
:100040000C947E000C947E000C947E000C947E0038
:100050000C947E000C947E000C947E000C947E0028
:100060000C947E000C947E000C947E000C947E0018
:100070000C947E000C947E000C947E000C947E0008
:100080000C947E000C947E000C947E000C947E00F8
:100090000C947E000C947E000C947E000C947E00E8
:1000A0000C947E000C947E000C947E000C947E00D8
:1000B0000C947E000C947E000C947E000C947E00C8
:1000C0000C947E000C947E000C947E000C947E00B8
:1000D0000C947E000C947E000C947E000C947E00A8
:1000E0000C947E0011241FBECFEFD1E2DEBFCDBF46
:1000F00000E00CBF0E9480000C94C2000C94000031
:10010000CF93DF93CDB7DEB784E290E0FC0120818E
:1001100084E290E02260FC01208385E290E0FC0113
:10012000208185E290E02260FC01208380E390E062
:10013000FC01208180E390E02F77FC01208381E3A4
:1001400090E0FC01208181E390E02068FC012083A5
:100150008FE290E0FC018081882351F485E290E0F9
:10016000FC01208185E290E02D7FFC012083F0CF0F
:1001700085E290E0FC01208185E290E02260FC01B4
:080180002083E6CFF894FFCFC5
:00000001FF
